{"abi":[{"type":"constructor","inputs":[{"name":"initialOwner","type":"address","internalType":"address"}],"stateMutability":"nonpayable"},{"type":"function","name":"campaignCount","inputs":[],"outputs":[{"name":"","type":"uint256","internalType":"uint256"}],"stateMutability":"view"},{"type":"function","name":"campaigns","inputs":[{"name":"","type":"uint256","internalType":"uint256"}],"outputs":[{"name":"creator","type":"address","internalType":"address"},{"name":"goal","type":"uint256","internalType":"uint256"},{"name":"deadline","type":"uint256","internalType":"uint256"},{"name":"pledged","type":"uint256","internalType":"uint256"},{"name":"claimed","type":"bool","internalType":"bool"}],"stateMutability":"view"},{"type":"function","name":"createCampaign","inputs":[{"name":"_goal","type":"uint256","internalType":"uint256"},{"name":"_duration","type":"uint256","internalType":"uint256"}],"outputs":[],"stateMutability":"nonpayable"},{"type":"function","name":"getCampaign","inputs":[{"name":"_campaignId","type":"uint256","internalType":"uint256"}],"outputs":[{"name":"","type":"address","internalType":"address"},{"name":"","type":"uint256","internalType":"uint256"},{"name":"","type":"uint256","internalType":"uint256"},{"name":"","type":"uint256","internalType":"uint256"},{"name":"","type":"bool","internalType":"bool"}],"stateMutability":"view"},{"type":"function","name":"owner","inputs":[],"outputs":[{"name":"","type":"address","internalType":"address"}],"stateMutability":"view"},{"type":"function","name":"pledge","inputs":[{"name":"_campaignId","type":"uint256","internalType":"uint256"}],"outputs":[],"stateMutability":"payable"},{"type":"function","name":"pledges","inputs":[{"name":"","type":"uint256","internalType":"uint256"},{"name":"","type":"address","internalType":"address"}],"outputs":[{"name":"","type":"uint256","internalType":"uint256"}],"stateMutability":"view"},{"type":"function","name":"refund","inputs":[{"name":"_campaignId","type":"uint256","internalType":"uint256"}],"outputs":[],"stateMutability":"nonpayable"},{"type":"function","name":"renounceOwnership","inputs":[],"outputs":[],"stateMutability":"nonpayable"},{"type":"function","name":"transferOwnership","inputs":[{"name":"newOwner","type":"address","internalType":"address"}],"outputs":[],"stateMutability":"nonpayable"},{"type":"function","name":"withdraw","inputs":[{"name":"_campaignId","type":"uint256","internalType":"uint256"}],"outputs":[],"stateMutability":"nonpayable"},{"type":"event","name":"CampaignCreated","inputs":[{"name":"campaignId","type":"uint256","indexed":false,"internalType":"uint256"},{"name":"creator","type":"address","indexed":true,"internalType":"address"},{"name":"goal","type":"uint256","indexed":false,"internalType":"uint256"},{"name":"deadline","type":"uint256","indexed":false,"internalType":"uint256"}],"anonymous":false},{"type":"event","name":"OwnershipTransferred","inputs":[{"name":"previousOwner","type":"address","indexed":true,"internalType":"address"},{"name":"newOwner","type":"address","indexed":true,"internalType":"address"}],"anonymous":false},{"type":"event","name":"Pledged","inputs":[{"name":"campaignId","type":"uint256","indexed":true,"internalType":"uint256"},{"name":"backer","type":"address","indexed":true,"internalType":"address"},{"name":"amount","type":"uint256","indexed":false,"internalType":"uint256"}],"anonymous":false},{"type":"event","name":"Refunded","inputs":[{"name":"campaignId","type":"uint256","indexed":true,"internalType":"uint256"},{"name":"backer","type":"address","indexed":true,"internalType":"address"},{"name":"amount","type":"uint256","indexed":false,"internalType":"uint256"}],"anonymous":false},{"type":"event","name":"Withdrawn","inputs":[{"name":"campaignId","type":"uint256","indexed":true,"internalType":"uint256"},{"name":"creator","type":"address","indexed":true,"internalType":"address"},{"name":"amount","type":"uint256","indexed":false,"internalType":"uint256"}],"anonymous":false},{"type":"error","name":"OwnableInvalidOwner","inputs":[{"name":"owner","type":"address","internalType":"address"}]},{"type":"error","name":"OwnableUnauthorizedAccount","inputs":[{"name":"account","type":"address","internalType":"address"}]},{"type":"error","name":"ReentrancyGuardReentrantCall","inputs":[]}],"bytecode":{"object":"0x608060405234801561000f575f5ffd5b506040516117ef3803806117ef833981810160405281019061003191906101e0565b8060015f819055505f73ffffffffffffffffffffffffffffffffffffffff168173ffffffffffffffffffffffffffffffffffffffff16036100a9575f6040517f1e4fbdf70000000000000000000000000000000000000000000000000000000081526004016100a0919061021a565b60405180910390fd5b6100b8816100bf60201b60201c565b5050610233565b5f60015f9054906101000a900473ffffffffffffffffffffffffffffffffffffffff1690508160015f6101000a81548173ffffffffffffffffffffffffffffffffffffffff021916908373ffffffffffffffffffffffffffffffffffffffff1602179055508173ffffffffffffffffffffffffffffffffffffffff168173ffffffffffffffffffffffffffffffffffffffff167f8be0079c531659141344cd1fd0a4f28419497f9722a3daafe3b4186f6b6457e060405160405180910390a35050565b5f5ffd5b5f73ffffffffffffffffffffffffffffffffffffffff82169050919050565b5f6101af82610186565b9050919050565b6101bf816101a5565b81146101c9575f5ffd5b50565b5f815190506101da816101b6565b92915050565b5f602082840312156101f5576101f4610182565b5b5f610202848285016101cc565b91505092915050565b610214816101a5565b82525050565b5f60208201905061022d5f83018461020b565b92915050565b6115af806102405f395ff3fe60806040526004361061009b575f3560e01c8063715018a611610063578063715018a6146101975780637274e30d146101ad5780637326c9c0146101d75780638da5cb5b146101f35780638e97f5241461021d578063f2fde38b146102595761009b565b8063141961bc1461009f57806322502268146100df578063278ecde1146101075780632e1a7d4d1461012f5780635598f8cc14610157575b5f5ffd5b3480156100aa575f5ffd5b506100c560048036038101906100c09190610e2e565b610281565b6040516100d6959493929190610ec1565b60405180910390f35b3480156100ea575f5ffd5b5061010560048036038101906101009190610f12565b6102de565b005b348015610112575f5ffd5b5061012d60048036038101906101289190610e2e565b6104b7565b005b34801561013a575f5ffd5b5061015560048036038101906101509190610e2e565b6106e7565b005b348015610162575f5ffd5b5061017d60048036038101906101789190610e2e565b610939565b60405161018e959493929190610ec1565b60405180910390f35b3480156101a2575f5ffd5b506101ab6109f9565b005b3480156101b8575f5ffd5b506101c1610a0c565b6040516101ce9190610f50565b60405180910390f35b6101f160048036038101906101ec9190610e2e565b610a12565b005b3480156101fe575f5ffd5b50610207610b8d565b6040516102149190610f69565b60405180910390f35b348015610228575f5ffd5b50610243600480360381019061023e9190610fac565b610bb5565b6040516102509190610f50565b60405180910390f35b348015610264575f5ffd5b5061027f600480360381019061027a9190610fea565b610bd5565b005b6003602052805f5260405f205f91509050805f015f9054906101000a900473ffffffffffffffffffffffffffffffffffffffff1690806001015490806002015490806003015490806004015f9054906101000a900460ff16905085565b5f8211610320576040517f08c379a00000000000000000000000000000000000000000000000000000000081526004016103179061106f565b60405180910390fd5b5f8111610362576040517f08c379a0000000000000000000000000000000000000000000000000000000008152600401610359906110d7565b60405180910390fd5b60025f81548092919061037490611122565b91905055505f81426103869190611169565b90506040518060a001604052803373ffffffffffffffffffffffffffffffffffffffff1681526020018481526020018281526020015f81526020015f151581525060035f60025481526020019081526020015f205f820151815f015f6101000a81548173ffffffffffffffffffffffffffffffffffffffff021916908373ffffffffffffffffffffffffffffffffffffffff1602179055506020820151816001015560408201518160020155606082015181600301556080820151816004015f6101000a81548160ff0219169083151502179055509050503373ffffffffffffffffffffffffffffffffffffffff167f91b289a829e71d811b8c69e4a24ba2d40d115d8a236e9a724cb3bb2d43cf722360025485846040516104aa9392919061119c565b60405180910390a2505050565b6104bf610c59565b5f60035f8381526020019081526020015f209050806002015442101561051a576040517f08c379a00000000000000000000000000000000000000000000000000000000081526004016105119061121b565b60405180910390fd5b8060010154816003015410610564576040517f08c379a000000000000000000000000000000000000000000000000000000000815260040161055b90611283565b60405180910390fd5b5f60045f8481526020019081526020015f205f3373ffffffffffffffffffffffffffffffffffffffff1673ffffffffffffffffffffffffffffffffffffffff1681526020019081526020015f205490505f81116105f6576040517f08c379a00000000000000000000000000000000000000000000000000000000081526004016105ed906112eb565b60405180910390fd5b5f60045f8581526020019081526020015f205f3373ffffffffffffffffffffffffffffffffffffffff1673ffffffffffffffffffffffffffffffffffffffff1681526020019081526020015f20819055503373ffffffffffffffffffffffffffffffffffffffff166108fc8290811502906040515f60405180830381858888f1935050505015801561068a573d5f5f3e3d5ffd5b503373ffffffffffffffffffffffffffffffffffffffff16837f7ca5472b7ea78c2c0141c5a12ee6d170cf4ce8ed06be3d22c8252ddfc7a6a2c4836040516106d29190610f50565b60405180910390a350506106e4610c9d565b50565b6106ef610c59565b5f60035f8381526020019081526020015f209050805f015f9054906101000a900473ffffffffffffffffffffffffffffffffffffffff1673ffffffffffffffffffffffffffffffffffffffff163373ffffffffffffffffffffffffffffffffffffffff1614610793576040517f08c379a000000000000000000000000000000000000000000000000000000000815260040161078a90611353565b60405180910390fd5b80600201544210156107da576040517f08c379a00000000000000000000000000000000000000000000000000000000081526004016107d19061121b565b60405180910390fd5b806001015481600301541015610825576040517f08c379a000000000000000000000000000000000000000000000000000000000815260040161081c906113bb565b60405180910390fd5b806004015f9054906101000a900460ff1615610876576040517f08c379a000000000000000000000000000000000000000000000000000000000815260040161086d90611423565b60405180910390fd5b6001816004015f6101000a81548160ff0219169083151502179055503373ffffffffffffffffffffffffffffffffffffffff166108fc826003015490811502906040515f60405180830381858888f193505050501580156108d9573d5f5f3e3d5ffd5b503373ffffffffffffffffffffffffffffffffffffffff16827fcf7d23a3cbe4e8b36ff82fd1b05b1b17373dc7804b4ebbd6e2356716ef20237283600301546040516109259190610f50565b60405180910390a350610936610c9d565b50565b5f5f5f5f5f5f8611801561094f57506002548611155b61098e576040517f08c379a00000000000000000000000000000000000000000000000000000000081526004016109859061148b565b60405180910390fd5b5f60035f8881526020019081526020015f209050805f015f9054906101000a900473ffffffffffffffffffffffffffffffffffffffff16816001015482600201548360030154846004015f9054906101000a900460ff16955095509550955095505091939590929450565b610a01610ca6565b610a0a5f610d2d565b565b60025481565b610a1a610c59565b5f60035f8381526020019081526020015f20905080600201544210610a74576040517f08c379a0000000000000000000000000000000000000000000000000000000008152600401610a6b906114f3565b60405180910390fd5b5f3411610ab6576040517f08c379a0000000000000000000000000000000000000000000000000000000008152600401610aad9061155b565b60405180910390fd5b34816003015f828254610ac99190611169565b925050819055503460045f8481526020019081526020015f205f3373ffffffffffffffffffffffffffffffffffffffff1673ffffffffffffffffffffffffffffffffffffffff1681526020019081526020015f205f828254610b2b9190611169565b925050819055503373ffffffffffffffffffffffffffffffffffffffff16827f2757ac6a40883f4491cc56930ae964df9034e343e660d5179eb01e198336756b34604051610b799190610f50565b60405180910390a350610b8a610c9d565b50565b5f60015f9054906101000a900473ffffffffffffffffffffffffffffffffffffffff16905090565b6004602052815f5260405f20602052805f5260405f205f91509150505481565b610bdd610ca6565b5f73ffffffffffffffffffffffffffffffffffffffff168173ffffffffffffffffffffffffffffffffffffffff1603610c4d575f6040517f1e4fbdf7000000000000000000000000000000000000000000000000000000008152600401610c449190610f69565b60405180910390fd5b610c5681610d2d565b50565b60025f5403610c94576040517f3ee5aeb500000000000000000000000000000000000000000000000000000000815260040160405180910390fd5b60025f81905550565b60015f81905550565b610cae610df0565b73ffffffffffffffffffffffffffffffffffffffff16610ccc610b8d565b73ffffffffffffffffffffffffffffffffffffffff1614610d2b57610cef610df0565b6040517f118cdaa7000000000000000000000000000000000000000000000000000000008152600401610d229190610f69565b60405180910390fd5b565b5f60015f9054906101000a900473ffffffffffffffffffffffffffffffffffffffff1690508160015f6101000a81548173ffffffffffffffffffffffffffffffffffffffff021916908373ffffffffffffffffffffffffffffffffffffffff1602179055508173ffffffffffffffffffffffffffffffffffffffff168173ffffffffffffffffffffffffffffffffffffffff167f8be0079c531659141344cd1fd0a4f28419497f9722a3daafe3b4186f6b6457e060405160405180910390a35050565b5f33905090565b5f5ffd5b5f819050919050565b610e0d81610dfb565b8114610e17575f5ffd5b50565b5f81359050610e2881610e04565b92915050565b5f60208284031215610e4357610e42610df7565b5b5f610e5084828501610e1a565b91505092915050565b5f73ffffffffffffffffffffffffffffffffffffffff82169050919050565b5f610e8282610e59565b9050919050565b610e9281610e78565b82525050565b610ea181610dfb565b82525050565b5f8115159050919050565b610ebb81610ea7565b82525050565b5f60a082019050610ed45f830188610e89565b610ee16020830187610e98565b610eee6040830186610e98565b610efb6060830185610e98565b610f086080830184610eb2565b9695505050505050565b5f5f60408385031215610f2857610f27610df7565b5b5f610f3585828601610e1a565b9250506020610f4685828601610e1a565b9150509250929050565b5f602082019050610f635f830184610e98565b92915050565b5f602082019050610f7c5f830184610e89565b92915050565b610f8b81610e78565b8114610f95575f5ffd5b50565b5f81359050610fa681610f82565b92915050565b5f5f60408385031215610fc257610fc1610df7565b5b5f610fcf85828601610e1a565b9250506020610fe085828601610f98565b9150509250929050565b5f60208284031215610fff57610ffe610df7565b5b5f61100c84828501610f98565b91505092915050565b5f82825260208201905092915050565b7f476f616c206d7573742062652067726561746572207468616e203000000000005f82015250565b5f611059601b83611015565b915061106482611025565b602082019050919050565b5f6020820190508181035f8301526110868161104d565b9050919050565b7f4475726174696f6e206d7573742062652067726561746572207468616e2030005f82015250565b5f6110c1601f83611015565b91506110cc8261108d565b602082019050919050565b5f6020820190508181035f8301526110ee816110b5565b9050919050565b7f4e487b71000000000000000000000000000000000000000000000000000000005f52601160045260245ffd5b5f61112c82610dfb565b91507fffffffffffffffffffffffffffffffffffffffffffffffffffffffffffffffff820361115e5761115d6110f5565b5b600182019050919050565b5f61117382610dfb565b915061117e83610dfb565b9250828201905080821115611196576111956110f5565b5b92915050565b5f6060820190506111af5f830186610e98565b6111bc6020830185610e98565b6111c96040830184610e98565b949350505050565b7f43616d706169676e206973207374696c6c2072756e6e696e67000000000000005f82015250565b5f611205601983611015565b9150611210826111d1565b602082019050919050565b5f6020820190508181035f830152611232816111f9565b9050919050565b7f476f616c206d65742c206e6f20726566756e64730000000000000000000000005f82015250565b5f61126d601483611015565b915061127882611239565b602082019050919050565b5f6020820190508181035f83015261129a81611261565b9050919050565b7f4e6f2066756e647320746f20726566756e6400000000000000000000000000005f82015250565b5f6112d5601283611015565b91506112e0826112a1565b602082019050919050565b5f6020820190508181035f830152611302816112c9565b9050919050565b7f4e6f74207468652063726561746f7200000000000000000000000000000000005f82015250565b5f61133d600f83611015565b915061134882611309565b602082019050919050565b5f6020820190508181035f83015261136a81611331565b9050919050565b7f476f616c206e6f74206d657400000000000000000000000000000000000000005f82015250565b5f6113a5600c83611015565b91506113b082611371565b602082019050919050565b5f6020820190508181035f8301526113d281611399565b9050919050565b7f416c726561647920636c61696d656400000000000000000000000000000000005f82015250565b5f61140d600f83611015565b9150611418826113d9565b602082019050919050565b5f6020820190508181035f83015261143a81611401565b9050919050565b7f43616d706169676e20646f6573206e6f742065786973740000000000000000005f82015250565b5f611475601783611015565b915061148082611441565b602082019050919050565b5f6020820190508181035f8301526114a281611469565b9050919050565b7f43616d706169676e2068617320656e64656400000000000000000000000000005f82015250565b5f6114dd601283611015565b91506114e8826114a9565b602082019050919050565b5f6020820190508181035f83015261150a816114d1565b9050919050565b7f4d7573742073656e6420455448000000000000000000000000000000000000005f82015250565b5f611545600d83611015565b915061155082611511565b602082019050919050565b5f6020820190508181035f83015261157281611539565b905091905056fea2646970667358221220fcc98e399a6066a48428e91e6bbffff430227764a52ea45b68dc036f6a6b38de64736f6c634300081c0033","linkReferences":{}},"methodIdentifiers":{"campaignCount()":"7274e30d","campaigns(uint256)":"141961bc","createCampaign(uint256,uint256)":"22502268","getCampaign(uint256)":"5598f8cc","owner()":"8da5cb5b","pledge(uint256)":"7326c9c0","pledges(uint256,address)":"8e97f524","refund(uint256)":"278ecde1","renounceOwnership()":"715018a6","transferOwnership(address)":"f2fde38b","withdraw(uint256)":"2e1a7d4d"},"id":18}